{
  "contractName": "Musixverse",
  "abi": [
    {
      "inputs": [],
      "stateMutability": "nonpayable",
      "type": "constructor"
    },
    {
      "anonymous": false,
      "inputs": [
        {
          "indexed": true,
          "internalType": "address",
          "name": "owner",
          "type": "address"
        },
        {
          "indexed": true,
          "internalType": "address",
          "name": "approved",
          "type": "address"
        },
        {
          "indexed": true,
          "internalType": "uint256",
          "name": "tokenId",
          "type": "uint256"
        }
      ],
      "name": "Approval",
      "type": "event"
    },
    {
      "anonymous": false,
      "inputs": [
        {
          "indexed": true,
          "internalType": "address",
          "name": "owner",
          "type": "address"
        },
        {
          "indexed": true,
          "internalType": "address",
          "name": "operator",
          "type": "address"
        },
        {
          "indexed": false,
          "internalType": "bool",
          "name": "approved",
          "type": "bool"
        }
      ],
      "name": "ApprovalForAll",
      "type": "event"
    },
    {
      "anonymous": false,
      "inputs": [
        {
          "indexed": false,
          "internalType": "uint256",
          "name": "fundsTransferredToSeller",
          "type": "uint256"
        },
        {
          "indexed": false,
          "internalType": "uint256",
          "name": "fundsTransferredToArtist",
          "type": "uint256"
        }
      ],
      "name": "FundsTransferred",
      "type": "event"
    },
    {
      "anonymous": false,
      "inputs": [
        {
          "indexed": false,
          "internalType": "uint256",
          "name": "fundsTransferredToArtist",
          "type": "uint256"
        }
      ],
      "name": "FundsTransferredToArtist",
      "type": "event"
    },
    {
      "anonymous": false,
      "inputs": [
        {
          "indexed": false,
          "internalType": "uint256",
          "name": "id",
          "type": "uint256"
        },
        {
          "indexed": false,
          "internalType": "string",
          "name": "songName",
          "type": "string"
        },
        {
          "indexed": false,
          "internalType": "string",
          "name": "artistName",
          "type": "string"
        },
        {
          "indexed": false,
          "internalType": "uint256",
          "name": "price",
          "type": "uint256"
        },
        {
          "indexed": false,
          "internalType": "uint256",
          "name": "createTime",
          "type": "uint256"
        }
      ],
      "name": "SongCreated",
      "type": "event"
    },
    {
      "anonymous": false,
      "inputs": [
        {
          "indexed": false,
          "internalType": "uint256",
          "name": "id",
          "type": "uint256"
        },
        {
          "indexed": false,
          "internalType": "string",
          "name": "songName",
          "type": "string"
        },
        {
          "indexed": false,
          "internalType": "string",
          "name": "artistName",
          "type": "string"
        },
        {
          "indexed": false,
          "internalType": "uint256",
          "name": "price",
          "type": "uint256"
        },
        {
          "indexed": false,
          "internalType": "address payable",
          "name": "artistAddress",
          "type": "address"
        },
        {
          "indexed": false,
          "internalType": "address payable",
          "name": "currentOwnerAddress",
          "type": "address"
        },
        {
          "indexed": false,
          "internalType": "bool",
          "name": "onSale",
          "type": "bool"
        }
      ],
      "name": "SongPurchased",
      "type": "event"
    },
    {
      "anonymous": false,
      "inputs": [
        {
          "indexed": false,
          "internalType": "uint256",
          "name": "id",
          "type": "uint256"
        },
        {
          "indexed": false,
          "internalType": "string",
          "name": "songName",
          "type": "string"
        },
        {
          "indexed": false,
          "internalType": "string",
          "name": "artistName",
          "type": "string"
        },
        {
          "indexed": false,
          "internalType": "uint256",
          "name": "price",
          "type": "uint256"
        },
        {
          "indexed": false,
          "internalType": "address payable",
          "name": "artistAddress",
          "type": "address"
        },
        {
          "indexed": false,
          "internalType": "address payable",
          "name": "currentOwnerAddress",
          "type": "address"
        },
        {
          "indexed": false,
          "internalType": "bool",
          "name": "onSale",
          "type": "bool"
        }
      ],
      "name": "SongUpdated",
      "type": "event"
    },
    {
      "anonymous": false,
      "inputs": [
        {
          "indexed": true,
          "internalType": "address",
          "name": "from",
          "type": "address"
        },
        {
          "indexed": true,
          "internalType": "address",
          "name": "to",
          "type": "address"
        },
        {
          "indexed": true,
          "internalType": "uint256",
          "name": "tokenId",
          "type": "uint256"
        }
      ],
      "name": "Transfer",
      "type": "event"
    },
    {
      "inputs": [
        {
          "internalType": "address",
          "name": "to",
          "type": "address"
        },
        {
          "internalType": "uint256",
          "name": "tokenId",
          "type": "uint256"
        }
      ],
      "name": "approve",
      "outputs": [],
      "stateMutability": "nonpayable",
      "type": "function"
    },
    {
      "inputs": [
        {
          "internalType": "address",
          "name": "owner",
          "type": "address"
        }
      ],
      "name": "balanceOf",
      "outputs": [
        {
          "internalType": "uint256",
          "name": "",
          "type": "uint256"
        }
      ],
      "stateMutability": "view",
      "type": "function",
      "constant": true
    },
    {
      "inputs": [
        {
          "internalType": "uint256",
          "name": "tokenId",
          "type": "uint256"
        }
      ],
      "name": "getApproved",
      "outputs": [
        {
          "internalType": "address",
          "name": "",
          "type": "address"
        }
      ],
      "stateMutability": "view",
      "type": "function",
      "constant": true
    },
    {
      "inputs": [
        {
          "internalType": "address",
          "name": "owner",
          "type": "address"
        },
        {
          "internalType": "address",
          "name": "operator",
          "type": "address"
        }
      ],
      "name": "isApprovedForAll",
      "outputs": [
        {
          "internalType": "bool",
          "name": "",
          "type": "bool"
        }
      ],
      "stateMutability": "view",
      "type": "function",
      "constant": true
    },
    {
      "inputs": [],
      "name": "name",
      "outputs": [
        {
          "internalType": "string",
          "name": "",
          "type": "string"
        }
      ],
      "stateMutability": "view",
      "type": "function",
      "constant": true
    },
    {
      "inputs": [
        {
          "internalType": "uint256",
          "name": "tokenId",
          "type": "uint256"
        }
      ],
      "name": "ownerOf",
      "outputs": [
        {
          "internalType": "address",
          "name": "",
          "type": "address"
        }
      ],
      "stateMutability": "view",
      "type": "function",
      "constant": true
    },
    {
      "inputs": [
        {
          "internalType": "address",
          "name": "from",
          "type": "address"
        },
        {
          "internalType": "address",
          "name": "to",
          "type": "address"
        },
        {
          "internalType": "uint256",
          "name": "tokenId",
          "type": "uint256"
        }
      ],
      "name": "safeTransferFrom",
      "outputs": [],
      "stateMutability": "nonpayable",
      "type": "function"
    },
    {
      "inputs": [
        {
          "internalType": "address",
          "name": "from",
          "type": "address"
        },
        {
          "internalType": "address",
          "name": "to",
          "type": "address"
        },
        {
          "internalType": "uint256",
          "name": "tokenId",
          "type": "uint256"
        },
        {
          "internalType": "bytes",
          "name": "_data",
          "type": "bytes"
        }
      ],
      "name": "safeTransferFrom",
      "outputs": [],
      "stateMutability": "nonpayable",
      "type": "function"
    },
    {
      "inputs": [
        {
          "internalType": "address",
          "name": "operator",
          "type": "address"
        },
        {
          "internalType": "bool",
          "name": "approved",
          "type": "bool"
        }
      ],
      "name": "setApprovalForAll",
      "outputs": [],
      "stateMutability": "nonpayable",
      "type": "function"
    },
    {
      "inputs": [],
      "name": "songsCount",
      "outputs": [
        {
          "internalType": "uint256",
          "name": "",
          "type": "uint256"
        }
      ],
      "stateMutability": "view",
      "type": "function",
      "constant": true
    },
    {
      "inputs": [
        {
          "internalType": "bytes4",
          "name": "interfaceId",
          "type": "bytes4"
        }
      ],
      "name": "supportsInterface",
      "outputs": [
        {
          "internalType": "bool",
          "name": "",
          "type": "bool"
        }
      ],
      "stateMutability": "view",
      "type": "function",
      "constant": true
    },
    {
      "inputs": [],
      "name": "symbol",
      "outputs": [
        {
          "internalType": "string",
          "name": "",
          "type": "string"
        }
      ],
      "stateMutability": "view",
      "type": "function",
      "constant": true
    },
    {
      "inputs": [
        {
          "internalType": "uint256",
          "name": "tokenId",
          "type": "uint256"
        }
      ],
      "name": "tokenURI",
      "outputs": [
        {
          "internalType": "string",
          "name": "",
          "type": "string"
        }
      ],
      "stateMutability": "view",
      "type": "function",
      "constant": true
    },
    {
      "inputs": [
        {
          "internalType": "address",
          "name": "from",
          "type": "address"
        },
        {
          "internalType": "address",
          "name": "to",
          "type": "address"
        },
        {
          "internalType": "uint256",
          "name": "tokenId",
          "type": "uint256"
        }
      ],
      "name": "transferFrom",
      "outputs": [],
      "stateMutability": "nonpayable",
      "type": "function"
    },
    {
      "inputs": [
        {
          "internalType": "string",
          "name": "_songName",
          "type": "string"
        },
        {
          "internalType": "string",
          "name": "_artistName",
          "type": "string"
        },
        {
          "internalType": "uint256",
          "name": "_price",
          "type": "uint256"
        },
        {
          "internalType": "string",
          "name": "_imgHash",
          "type": "string"
        },
        {
          "internalType": "string",
          "name": "_songHash",
          "type": "string"
        },
        {
          "internalType": "string",
          "name": "_descHash",
          "type": "string"
        },
        {
          "internalType": "string",
          "name": "_lyricsHash",
          "type": "string"
        },
        {
          "internalType": "bool",
          "name": "_onSale",
          "type": "bool"
        },
        {
          "components": [
            {
              "internalType": "string",
              "name": "spotify",
              "type": "string"
            },
            {
              "internalType": "string",
              "name": "appleMusic",
              "type": "string"
            },
            {
              "internalType": "string",
              "name": "amazonMusic",
              "type": "string"
            },
            {
              "internalType": "string",
              "name": "youtubeMusic",
              "type": "string"
            }
          ],
          "internalType": "struct Musixverse.Link",
          "name": "_links",
          "type": "tuple"
        },
        {
          "components": [
            {
              "internalType": "string",
              "name": "genre",
              "type": "string"
            },
            {
              "internalType": "string[]",
              "name": "instruments",
              "type": "string[]"
            },
            {
              "internalType": "string",
              "name": "typeOfLyrics",
              "type": "string"
            },
            {
              "internalType": "string",
              "name": "songType",
              "type": "string"
            },
            {
              "internalType": "string",
              "name": "frequency",
              "type": "string"
            },
            {
              "internalType": "string",
              "name": "instrumentType",
              "type": "string"
            },
            {
              "internalType": "bool",
              "name": "sampleBased",
              "type": "bool"
            }
          ],
          "internalType": "struct Musixverse.Characteristic",
          "name": "_characteristics",
          "type": "tuple"
        }
      ],
      "name": "createSong",
      "outputs": [],
      "stateMutability": "nonpayable",
      "type": "function"
    },
    {
      "inputs": [
        {
          "internalType": "uint256",
          "name": "_id",
          "type": "uint256"
        }
      ],
      "name": "purchaseSong",
      "outputs": [],
      "stateMutability": "payable",
      "type": "function",
      "payable": true
    },
    {
      "inputs": [
        {
          "internalType": "uint256",
          "name": "_id",
          "type": "uint256"
        }
      ],
      "name": "toggleOnSale",
      "outputs": [],
      "stateMutability": "nonpayable",
      "type": "function"
    },
    {
      "inputs": [
        {
          "internalType": "uint256",
          "name": "_id",
          "type": "uint256"
        },
        {
          "internalType": "uint256",
          "name": "_newPrice",
          "type": "uint256"
        }
      ],
      "name": "updatePrice",
      "outputs": [],
      "stateMutability": "nonpayable",
      "type": "function"
    },
    {
      "inputs": [],
      "name": "fetchAllNFTs",
      "outputs": [
        {
          "components": [
            {
              "internalType": "uint256",
              "name": "id",
              "type": "uint256"
            },
            {
              "internalType": "string",
              "name": "songName",
              "type": "string"
            },
            {
              "internalType": "string",
              "name": "artistName",
              "type": "string"
            },
            {
              "internalType": "uint256",
              "name": "price",
              "type": "uint256"
            },
            {
              "internalType": "uint256",
              "name": "createTime",
              "type": "uint256"
            },
            {
              "components": [
                {
                  "internalType": "string",
                  "name": "imgHash",
                  "type": "string"
                },
                {
                  "internalType": "string",
                  "name": "songHash",
                  "type": "string"
                },
                {
                  "internalType": "string",
                  "name": "descHash",
                  "type": "string"
                },
                {
                  "internalType": "string",
                  "name": "lyricsHash",
                  "type": "string"
                }
              ],
              "internalType": "struct Musixverse.Hashes",
              "name": "hashes",
              "type": "tuple"
            },
            {
              "internalType": "address payable",
              "name": "artistAddress",
              "type": "address"
            },
            {
              "internalType": "address payable",
              "name": "currentOwnerAddress",
              "type": "address"
            },
            {
              "internalType": "bool",
              "name": "onSale",
              "type": "bool"
            },
            {
              "components": [
                {
                  "internalType": "address[]",
                  "name": "previousOwners",
                  "type": "address[]"
                },
                {
                  "internalType": "uint256[]",
                  "name": "previousPrices",
                  "type": "uint256[]"
                },
                {
                  "internalType": "uint256[]",
                  "name": "previousSaleTimes",
                  "type": "uint256[]"
                }
              ],
              "internalType": "struct Musixverse.Sales",
              "name": "sales",
              "type": "tuple"
            },
            {
              "components": [
                {
                  "internalType": "string",
                  "name": "spotify",
                  "type": "string"
                },
                {
                  "internalType": "string",
                  "name": "appleMusic",
                  "type": "string"
                },
                {
                  "internalType": "string",
                  "name": "amazonMusic",
                  "type": "string"
                },
                {
                  "internalType": "string",
                  "name": "youtubeMusic",
                  "type": "string"
                }
              ],
              "internalType": "struct Musixverse.Link",
              "name": "links",
              "type": "tuple"
            },
            {
              "components": [
                {
                  "internalType": "string",
                  "name": "genre",
                  "type": "string"
                },
                {
                  "internalType": "string[]",
                  "name": "instruments",
                  "type": "string[]"
                },
                {
                  "internalType": "string",
                  "name": "typeOfLyrics",
                  "type": "string"
                },
                {
                  "internalType": "string",
                  "name": "songType",
                  "type": "string"
                },
                {
                  "internalType": "string",
                  "name": "frequency",
                  "type": "string"
                },
                {
                  "internalType": "string",
                  "name": "instrumentType",
                  "type": "string"
                },
                {
                  "internalType": "bool",
                  "name": "sampleBased",
                  "type": "bool"
                }
              ],
              "internalType": "struct Musixverse.Characteristic",
              "name": "characteristics",
              "type": "tuple"
            }
          ],
          "internalType": "struct Musixverse.Song[]",
          "name": "",
          "type": "tuple[]"
        }
      ],
      "stateMutability": "view",
      "type": "function",
      "constant": true
    },
    {
      "inputs": [],
      "name": "fetchMyNFTs",
      "outputs": [
        {
          "components": [
            {
              "internalType": "uint256",
              "name": "id",
              "type": "uint256"
            },
            {
              "internalType": "string",
              "name": "songName",
              "type": "string"
            },
            {
              "internalType": "string",
              "name": "artistName",
              "type": "string"
            },
            {
              "internalType": "uint256",
              "name": "price",
              "type": "uint256"
            },
            {
              "internalType": "uint256",
              "name": "createTime",
              "type": "uint256"
            },
            {
              "components": [
                {
                  "internalType": "string",
                  "name": "imgHash",
                  "type": "string"
                },
                {
                  "internalType": "string",
                  "name": "songHash",
                  "type": "string"
                },
                {
                  "internalType": "string",
                  "name": "descHash",
                  "type": "string"
                },
                {
                  "internalType": "string",
                  "name": "lyricsHash",
                  "type": "string"
                }
              ],
              "internalType": "struct Musixverse.Hashes",
              "name": "hashes",
              "type": "tuple"
            },
            {
              "internalType": "address payable",
              "name": "artistAddress",
              "type": "address"
            },
            {
              "internalType": "address payable",
              "name": "currentOwnerAddress",
              "type": "address"
            },
            {
              "internalType": "bool",
              "name": "onSale",
              "type": "bool"
            },
            {
              "components": [
                {
                  "internalType": "address[]",
                  "name": "previousOwners",
                  "type": "address[]"
                },
                {
                  "internalType": "uint256[]",
                  "name": "previousPrices",
                  "type": "uint256[]"
                },
                {
                  "internalType": "uint256[]",
                  "name": "previousSaleTimes",
                  "type": "uint256[]"
                }
              ],
              "internalType": "struct Musixverse.Sales",
              "name": "sales",
              "type": "tuple"
            },
            {
              "components": [
                {
                  "internalType": "string",
                  "name": "spotify",
                  "type": "string"
                },
                {
                  "internalType": "string",
                  "name": "appleMusic",
                  "type": "string"
                },
                {
                  "internalType": "string",
                  "name": "amazonMusic",
                  "type": "string"
                },
                {
                  "internalType": "string",
                  "name": "youtubeMusic",
                  "type": "string"
                }
              ],
              "internalType": "struct Musixverse.Link",
              "name": "links",
              "type": "tuple"
            },
            {
              "components": [
                {
                  "internalType": "string",
                  "name": "genre",
                  "type": "string"
                },
                {
                  "internalType": "string[]",
                  "name": "instruments",
                  "type": "string[]"
                },
                {
                  "internalType": "string",
                  "name": "typeOfLyrics",
                  "type": "string"
                },
                {
                  "internalType": "string",
                  "name": "songType",
                  "type": "string"
                },
                {
                  "internalType": "string",
                  "name": "frequency",
                  "type": "string"
                },
                {
                  "internalType": "string",
                  "name": "instrumentType",
                  "type": "string"
                },
                {
                  "internalType": "bool",
                  "name": "sampleBased",
                  "type": "bool"
                }
              ],
              "internalType": "struct Musixverse.Characteristic",
              "name": "characteristics",
              "type": "tuple"
            }
          ],
          "internalType": "struct Musixverse.Song[]",
          "name": "",
          "type": "tuple[]"
        }
      ],
      "stateMutability": "view",
      "type": "function",
      "constant": true
    },
    {
      "inputs": [],
      "name": "fetchNFTsCreated",
      "outputs": [
        {
          "components": [
            {
              "internalType": "uint256",
              "name": "id",
              "type": "uint256"
            },
            {
              "internalType": "string",
              "name": "songName",
              "type": "string"
            },
            {
              "internalType": "string",
              "name": "artistName",
              "type": "string"
            },
            {
              "internalType": "uint256",
              "name": "price",
              "type": "uint256"
            },
            {
              "internalType": "uint256",
              "name": "createTime",
              "type": "uint256"
            },
            {
              "components": [
                {
                  "internalType": "string",
                  "name": "imgHash",
                  "type": "string"
                },
                {
                  "internalType": "string",
                  "name": "songHash",
                  "type": "string"
                },
                {
                  "internalType": "string",
                  "name": "descHash",
                  "type": "string"
                },
                {
                  "internalType": "string",
                  "name": "lyricsHash",
                  "type": "string"
                }
              ],
              "internalType": "struct Musixverse.Hashes",
              "name": "hashes",
              "type": "tuple"
            },
            {
              "internalType": "address payable",
              "name": "artistAddress",
              "type": "address"
            },
            {
              "internalType": "address payable",
              "name": "currentOwnerAddress",
              "type": "address"
            },
            {
              "internalType": "bool",
              "name": "onSale",
              "type": "bool"
            },
            {
              "components": [
                {
                  "internalType": "address[]",
                  "name": "previousOwners",
                  "type": "address[]"
                },
                {
                  "internalType": "uint256[]",
                  "name": "previousPrices",
                  "type": "uint256[]"
                },
                {
                  "internalType": "uint256[]",
                  "name": "previousSaleTimes",
                  "type": "uint256[]"
                }
              ],
              "internalType": "struct Musixverse.Sales",
              "name": "sales",
              "type": "tuple"
            },
            {
              "components": [
                {
                  "internalType": "string",
                  "name": "spotify",
                  "type": "string"
                },
                {
                  "internalType": "string",
                  "name": "appleMusic",
                  "type": "string"
                },
                {
                  "internalType": "string",
                  "name": "amazonMusic",
                  "type": "string"
                },
                {
                  "internalType": "string",
                  "name": "youtubeMusic",
                  "type": "string"
                }
              ],
              "internalType": "struct Musixverse.Link",
              "name": "links",
              "type": "tuple"
            },
            {
              "components": [
                {
                  "internalType": "string",
                  "name": "genre",
                  "type": "string"
                },
                {
                  "internalType": "string[]",
                  "name": "instruments",
                  "type": "string[]"
                },
                {
                  "internalType": "string",
                  "name": "typeOfLyrics",
                  "type": "string"
                },
                {
                  "internalType": "string",
                  "name": "songType",
                  "type": "string"
                },
                {
                  "internalType": "string",
                  "name": "frequency",
                  "type": "string"
                },
                {
                  "internalType": "string",
                  "name": "instrumentType",
                  "type": "string"
                },
                {
                  "internalType": "bool",
                  "name": "sampleBased",
                  "type": "bool"
                }
              ],
              "internalType": "struct Musixverse.Characteristic",
              "name": "characteristics",
              "type": "tuple"
            }
          ],
          "internalType": "struct Musixverse.Song[]",
          "name": "",
          "type": "tuple[]"
        }
      ],
      "stateMutability": "view",
      "type": "function",
      "constant": true
    }
  ],
  "bytecode": "0x60806040526000600755600880546001600160a01b03191673159507b2b3829791fab794581d2ac074f35960131790553480156200003c57600080fd5b50604080518082018252600a8152694d75736978766572736560b01b60208083019182528351808501909452600384526226ac2b60e91b9084015281519192916200008a91600091620000ae565b508051620000a0906001906020840190620000ae565b505060016006555062000191565b828054620000bc9062000154565b90600052602060002090601f016020900481019282620000e057600085556200012b565b82601f10620000fb57805160ff19168380011785556200012b565b828001600101855582156200012b579182015b828111156200012b5782518255916020019190600101906200010e565b50620001399291506200013d565b5090565b5b808211156200013957600081556001016200013e565b6002810460018216806200016957607f821691505b602082108114156200018b57634e487b7160e01b600052602260045260246000fd5b50919050565b615f7680620001a16000396000f3fe6080604052600436106100fa5760003560e01c806301ffc9a7146100ff57806306fdde0314610135578063081812fc14610157578063095ea7b314610184578063202e3740146101a657806323b872dd146101c85780633f0e317b146101e857806342842e0e146101fd5780634e8172b81461021d5780635375faa51461023f5780635cc11b341461025f5780636352211e1461027457806370a08231146102945780637b3e4ce0146102b457806382367b2d146102c757806395d89b41146102e7578063a22cb465146102fc578063b88d4fde1461031c578063c87b56dd1461033c578063e985e9c51461035c578063ee169bd31461037c575b600080fd5b34801561010b57600080fd5b5061011f61011a366004614f22565b61039c565b60405161012c91906155a8565b60405180910390f35b34801561014157600080fd5b5061014a6103e4565b60405161012c91906155b3565b34801561016357600080fd5b506101776101723660046150ac565b610476565b60405161012c9190615406565b34801561019057600080fd5b506101a461019f366004614ef9565b6104c2565b005b3480156101b257600080fd5b506101bb61055a565b60405161012c9190615457565b3480156101d457600080fd5b506101a46101e3366004614e1d565b61121a565b3480156101f457600080fd5b506101bb611252565b34801561020957600080fd5b506101a4610218366004614e1d565b611e87565b34801561022957600080fd5b50610232611ea2565b60405161012c9190615cc6565b34801561024b57600080fd5b506101a461025a366004614f5a565b611ea8565b34801561026b57600080fd5b506101bb61233b565b34801561028057600080fd5b5061017761028f3660046150ac565b612ff2565b3480156102a057600080fd5b506102326102af366004614dd1565b613027565b6101a46102c23660046150ac565b61306b565b3480156102d357600080fd5b506101a46102e23660046150c4565b613721565b3480156102f357600080fd5b5061014a613ae9565b34801561030857600080fd5b506101a4610317366004614ed0565b613af8565b34801561032857600080fd5b506101a4610337366004614e58565b613bc6565b34801561034857600080fd5b5061014a6103573660046150ac565b613c05565b34801561036857600080fd5b5061011f610377366004614deb565b613c88565b34801561038857600080fd5b506101a46103973660046150ac565b613cb6565b60006001600160e01b031982166380ac58cd60e01b14806103cd57506001600160e01b03198216635b5e139f60e01b145b806103dc57506103dc82614102565b90505b919050565b6060600080546103f390615e3e565b80601f016020809104026020016040519081016040528092919081815260200182805461041f90615e3e565b801561046c5780601f106104415761010080835404028352916020019161046c565b820191906000526020600020905b81548152906001019060200180831161044f57829003601f168201915b5050505050905090565b60006104818261411b565b6104a65760405162461bcd60e51b815260040161049d906159a9565b60405180910390fd5b506000908152600460205260409020546001600160a01b031690565b60006104cd82612ff2565b9050806001600160a01b0316836001600160a01b031614156105015760405162461bcd60e51b815260040161049d90615b2c565b806001600160a01b0316610513614138565b6001600160a01b0316148061052f575061052f81610377614138565b61054b5760405162461bcd60e51b815260040161049d90615889565b610555838361413c565b505050565b600754606090600080805b838110156105c057336009600061057d846001615db0565b81526020810191909152604001600020600a01546001600160a01b031614156105ae576105ab600184615db0565b92505b806105b881615e79565b915050610565565b506000826001600160401b038111156105e957634e487b7160e01b600052604160045260246000fd5b60405190808252806020026020018201604052801561062257816020015b61060f614700565b8152602001906001900390816106075790505b50905060005b84811015611211573360096000610640846001615db0565b81526020810191909152604001600020600a01546001600160a01b031614156111ff576000610670826001615db0565b905060006009600083815260200190815260200160002090508060405180610180016040529081600082015481526020016001820180546106b090615e3e565b80601f01602080910402602001604051908101604052809291908181526020018280546106dc90615e3e565b80156107295780601f106106fe57610100808354040283529160200191610729565b820191906000526020600020905b81548152906001019060200180831161070c57829003601f168201915b5050505050815260200160028201805461074290615e3e565b80601f016020809104026020016040519081016040528092919081815260200182805461076e90615e3e565b80156107bb5780601f10610790576101008083540402835291602001916107bb565b820191906000526020600020905b81548152906001019060200180831161079e57829003601f168201915b505050505081526020016003820154815260200160048201548152602001600582016040518060800160405290816000820180546107f890615e3e565b80601f016020809104026020016040519081016040528092919081815260200182805461082490615e3e565b80156108715780601f1061084657610100808354040283529160200191610871565b820191906000526020600020905b81548152906001019060200180831161085457829003601f168201915b5050505050815260200160018201805461088a90615e3e565b80601f01602080910402602001604051908101604052809291908181526020018280546108b690615e3e565b80156109035780601f106108d857610100808354040283529160200191610903565b820191906000526020600020905b8154815290600101906020018083116108e657829003601f168201915b5050505050815260200160028201805461091c90615e3e565b80601f016020809104026020016040519081016040528092919081815260200182805461094890615e3e565b80156109955780601f1061096a57610100808354040283529160200191610995565b820191906000526020600020905b81548152906001019060200180831161097857829003601f168201915b505050505081526020016003820180546109ae90615e3e565b80601f01602080910402602001604051908101604052809291908181526020018280546109da90615e3e565b8015610a275780601f106109fc57610100808354040283529160200191610a27565b820191906000526020600020905b815481529060010190602001808311610a0a57829003601f168201915b50505091909252505050815260098201546001600160a01b03908116602080840191909152600a840154918216604080850191909152600160a01b90920460ff1615156060808501919091528251600b86018054608094810283018501909552918101848152948301949093919284928491840182828015610ad257602002820191906000526020600020905b81546001600160a01b03168152600190910190602001808311610ab4575b5050505050815260200160018201805480602002602001604051908101604052809291908181526020018280548015610b2a57602002820191906000526020600020905b815481526020019060010190808311610b16575b5050505050815260200160028201805480602002602001604051908101604052809291908181526020018280548015610b8257602002820191906000526020600020905b815481526020019060010190808311610b6e575b5050505050815250508152602001600e8201604051806080016040529081600082018054610baf90615e3e565b80601f0160208091040260200160405190810160405280929190818152602001828054610bdb90615e3e565b8015610c285780601f10610bfd57610100808354040283529160200191610c28565b820191906000526020600020905b815481529060010190602001808311610c0b57829003601f168201915b50505050508152602001600182018054610c4190615e3e565b80601f0160208091040260200160405190810160405280929190818152602001828054610c6d90615e3e565b8015610cba5780601f10610c8f57610100808354040283529160200191610cba565b820191906000526020600020905b815481529060010190602001808311610c9d57829003601f168201915b50505050508152602001600282018054610cd390615e3e565b80601f0160208091040260200160405190810160405280929190818152602001828054610cff90615e3e565b8015610d4c5780601f10610d2157610100808354040283529160200191610d4c565b820191906000526020600020905b815481529060010190602001808311610d2f57829003601f168201915b50505050508152602001600382018054610d6590615e3e565b80601f0160208091040260200160405190810160405280929190818152602001828054610d9190615e3e565b8015610dde5780601f10610db357610100808354040283529160200191610dde565b820191906000526020600020905b815481529060010190602001808311610dc157829003601f168201915b5050505050815250508152602001601282016040518060e0016040529081600082018054610e0b90615e3e565b80601f0160208091040260200160405190810160405280929190818152602001828054610e3790615e3e565b8015610e845780601f10610e5957610100808354040283529160200191610e84565b820191906000526020600020905b815481529060010190602001808311610e6757829003601f168201915b5050505050815260200160018201805480602002602001604051908101604052809291908181526020016000905b82821015610f5e578382906000526020600020018054610ed190615e3e565b80601f0160208091040260200160405190810160405280929190818152602001828054610efd90615e3e565b8015610f4a5780601f10610f1f57610100808354040283529160200191610f4a565b820191906000526020600020905b815481529060010190602001808311610f2d57829003601f168201915b505050505081526020019060010190610eb2565b505050508152602001600282018054610f7690615e3e565b80601f0160208091040260200160405190810160405280929190818152602001828054610fa290615e3e565b8015610fef5780601f10610fc457610100808354040283529160200191610fef565b820191906000526020600020905b815481529060010190602001808311610fd257829003601f168201915b5050505050815260200160038201805461100890615e3e565b80601f016020809104026020016040519081016040528092919081815260200182805461103490615e3e565b80156110815780601f1061105657610100808354040283529160200191611081565b820191906000526020600020905b81548152906001019060200180831161106457829003601f168201915b5050505050815260200160048201805461109a90615e3e565b80601f01602080910402602001604051908101604052809291908181526020018280546110c690615e3e565b80156111135780601f106110e857610100808354040283529160200191611113565b820191906000526020600020905b8154815290600101906020018083116110f657829003601f168201915b5050505050815260200160058201805461112c90615e3e565b80601f016020809104026020016040519081016040528092919081815260200182805461115890615e3e565b80156111a55780601f1061117a576101008083540402835291602001916111a5565b820191906000526020600020905b81548152906001019060200180831161118857829003601f168201915b50505091835250506006919091015460ff16151560209091015290525084518590879081106111e457634e487b7160e01b600052603260045260246000fd5b60209081029190910101526111fa600186615db0565b945050505b8061120981615e79565b915050610628565b50935050505090565b61122b611225614138565b826141aa565b6112475760405162461bcd60e51b815260040161049d90615bb8565b61055583838361422f565b60606000600754116112765760405162461bcd60e51b815260040161049d906155c6565b60006007546001600160401b038111156112a057634e487b7160e01b600052604160045260246000fd5b6040519080825280602002602001820160405280156112d957816020015b6112c6614700565b8152602001906001900390816112be5790505b50905060015b6007548111611e8157600060096000838152602001908152602001600020905080604051806101800160405290816000820154815260200160018201805461132690615e3e565b80601f016020809104026020016040519081016040528092919081815260200182805461135290615e3e565b801561139f5780601f106113745761010080835404028352916020019161139f565b820191906000526020600020905b81548152906001019060200180831161138257829003601f168201915b505050505081526020016002820180546113b890615e3e565b80601f01602080910402602001604051908101604052809291908181526020018280546113e490615e3e565b80156114315780601f1061140657610100808354040283529160200191611431565b820191906000526020600020905b81548152906001019060200180831161141457829003601f168201915b5050505050815260200160038201548152602001600482015481526020016005820160405180608001604052908160008201805461146e90615e3e565b80601f016020809104026020016040519081016040528092919081815260200182805461149a90615e3e565b80156114e75780601f106114bc576101008083540402835291602001916114e7565b820191906000526020600020905b8154815290600101906020018083116114ca57829003601f168201915b5050505050815260200160018201805461150090615e3e565b80601f016020809104026020016040519081016040528092919081815260200182805461152c90615e3e565b80156115795780601f1061154e57610100808354040283529160200191611579565b820191906000526020600020905b81548152906001019060200180831161155c57829003601f168201915b5050505050815260200160028201805461159290615e3e565b80601f01602080910402602001604051908101604052809291908181526020018280546115be90615e3e565b801561160b5780601f106115e05761010080835404028352916020019161160b565b820191906000526020600020905b8154815290600101906020018083116115ee57829003601f168201915b5050505050815260200160038201805461162490615e3e565b80601f016020809104026020016040519081016040528092919081815260200182805461165090615e3e565b801561169d5780601f106116725761010080835404028352916020019161169d565b820191906000526020600020905b81548152906001019060200180831161168057829003601f168201915b50505091909252505050815260098201546001600160a01b03908116602080840191909152600a840154918216604080850191909152600160a01b90920460ff1615156060808501919091528251600b8601805460809481028301850190955291810184815294830194909391928492849184018282801561174857602002820191906000526020600020905b81546001600160a01b0316815260019091019060200180831161172a575b50505050508152602001600182018054806020026020016040519081016040528092919081815260200182805480156117a057602002820191906000526020600020905b81548152602001906001019080831161178c575b50505050508152602001600282018054806020026020016040519081016040528092919081815260200182805480156117f857602002820191906000526020600020905b8154815260200190600101908083116117e4575b5050505050815250508152602001600e820160405180608001604052908160008201805461182590615e3e565b80601f016020809104026020016040519081016040528092919081815260200182805461185190615e3e565b801561189e5780601f106118735761010080835404028352916020019161189e565b820191906000526020600020905b81548152906001019060200180831161188157829003601f168201915b505050505081526020016001820180546118b790615e3e565b80601f01602080910402602001604051908101604052809291908181526020018280546118e390615e3e565b80156119305780601f1061190557610100808354040283529160200191611930565b820191906000526020600020905b81548152906001019060200180831161191357829003601f168201915b5050505050815260200160028201805461194990615e3e565b80601f016020809104026020016040519081016040528092919081815260200182805461197590615e3e565b80156119c25780601f10611997576101008083540402835291602001916119c2565b820191906000526020600020905b8154815290600101906020018083116119a557829003601f168201915b505050505081526020016003820180546119db90615e3e565b80601f0160208091040260200160405190810160405280929190818152602001828054611a0790615e3e565b8015611a545780601f10611a2957610100808354040283529160200191611a54565b820191906000526020600020905b815481529060010190602001808311611a3757829003601f168201915b5050505050815250508152602001601282016040518060e0016040529081600082018054611a8190615e3e565b80601f0160208091040260200160405190810160405280929190818152602001828054611aad90615e3e565b8015611afa5780601f10611acf57610100808354040283529160200191611afa565b820191906000526020600020905b815481529060010190602001808311611add57829003601f168201915b5050505050815260200160018201805480602002602001604051908101604052809291908181526020016000905b82821015611bd4578382906000526020600020018054611b4790615e3e565b80601f0160208091040260200160405190810160405280929190818152602001828054611b7390615e3e565b8015611bc05780601f10611b9557610100808354040283529160200191611bc0565b820191906000526020600020905b815481529060010190602001808311611ba357829003601f168201915b505050505081526020019060010190611b28565b505050508152602001600282018054611bec90615e3e565b80601f0160208091040260200160405190810160405280929190818152602001828054611c1890615e3e565b8015611c655780601f10611c3a57610100808354040283529160200191611c65565b820191906000526020600020905b815481529060010190602001808311611c4857829003601f168201915b50505050508152602001600382018054611c7e90615e3e565b80601f0160208091040260200160405190810160405280929190818152602001828054611caa90615e3e565b8015611cf75780601f10611ccc57610100808354040283529160200191611cf7565b820191906000526020600020905b815481529060010190602001808311611cda57829003601f168201915b50505050508152602001600482018054611d1090615e3e565b80601f0160208091040260200160405190810160405280929190818152602001828054611d3c90615e3e565b8015611d895780601f10611d5e57610100808354040283529160200191611d89565b820191906000526020600020905b815481529060010190602001808311611d6c57829003601f168201915b50505050508152602001600582018054611da290615e3e565b80601f0160208091040260200160405190810160405280929190818152602001828054611dce90615e3e565b8015611e1b5780601f10611df057610100808354040283529160200191611e1b565b820191906000526020600020905b815481529060010190602001808311611dfe57829003601f168201915b50505091835250506006919091015460ff16151560209091015290525083611e44600185615dfb565b81518110611e6257634e487b7160e01b600052603260045260246000fd5b6020026020010181905250508080611e7990615e79565b9150506112df565b50905090565b61055583838360405180602001604052806000815250613bc6565b60075481565b60026006541415611ecb5760405162461bcd60e51b815260040161049d90615c59565b60026006558951611eee5760405162461bcd60e51b815260040161049d90615856565b6000895111611f0f5760405162461bcd60e51b815260040161049d90615ab6565b60008811611f2f5760405162461bcd60e51b815260040161049d90615c90565b6000875111611f505760405162461bcd60e51b815260040161049d906155f1565b6000865111611f715760405162461bcd60e51b815260040161049d906157a8565b600160076000828254611f849190615db0565b90915550429050611f93614778565b60405180610180016040528060075481526020018d81526020018c81526020018b815260200183815260200160405180608001604052808c81526020018b81526020018a8152602001898152508152602001336001600160a01b03168152602001336001600160a01b03168152602001861515815260200182815260200185815260200184815250600960006007548152602001908152602001600020600082015181600001556020820151816001019080519060200190612056929190614799565b5060408201518051612072916002840191602090910190614799565b50606082015160038201556080820151600482015560a08201518051805160058401916120a491839160200190614799565b5060208281015180516120bd9260018501920190614799565b50604082015180516120d9916002840191602090910190614799565b50606082015180516120f5916003840191602090910190614799565b50505060c08201516009820180546001600160a01b03199081166001600160a01b039384161790915560e0840151600a840180546101008701519316919093161760ff60a01b1916600160a01b9115159190910217905561012082015180518051600b84019161216a9183916020019061481d565b5060208281015180516121839260018501920190614872565b506040820151805161219f916002840191602090910190614872565b50505061014082015180518051600e8401916121c091839160200190614799565b5060208281015180516121d99260018501920190614799565b50604082015180516121f5916002840191602090910190614799565b5060608201518051612211916003840191602090910190614799565b50505061016082015180518051601284019161223291839160200190614799565b50602082810151805161224b92600185019201906148ac565b5060408201518051612267916002840191602090910190614799565b5060608201518051612283916003840191602090910190614799565b506080820151805161229f916004840191602090910190614799565b5060a082015180516122bb916005840191602090910190614799565b5060c091909101516006909101805460ff191691151591909117905550506007546122e790339061434a565b7ff96f5a22b702e245197d25380b983bdb8de270d638f04994781b9faaf3df61636007548d8d8d86604051612320959493929190615ccf565b60405180910390a15050600160065550505050505050505050565b600754606090600080805b838110156123a157336009600061235e846001615db0565b81526020810191909152604001600020600901546001600160a01b0316141561238f5761238c600184615db0565b92505b8061239981615e79565b915050612346565b506000826001600160401b038111156123ca57634e487b7160e01b600052604160045260246000fd5b60405190808252806020026020018201604052801561240357816020015b6123f0614700565b8152602001906001900390816123e85790505b50905060005b84811015611211573360096000612421846001615db0565b81526020810191909152604001600020600901546001600160a01b03161415612fe0576000612451826001615db0565b9050600060096000838152602001908152602001600020905080604051806101800160405290816000820154815260200160018201805461249190615e3e565b80601f01602080910402602001604051908101604052809291908181526020018280546124bd90615e3e565b801561250a5780601f106124df5761010080835404028352916020019161250a565b820191906000526020600020905b8154815290600101906020018083116124ed57829003601f168201915b5050505050815260200160028201805461252390615e3e565b80601f016020809104026020016040519081016040528092919081815260200182805461254f90615e3e565b801561259c5780601f106125715761010080835404028352916020019161259c565b820191906000526020600020905b81548152906001019060200180831161257f57829003601f168201915b505050505081526020016003820154815260200160048201548152602001600582016040518060800160405290816000820180546125d990615e3e565b80601f016020809104026020016040519081016040528092919081815260200182805461260590615e3e565b80156126525780601f1061262757610100808354040283529160200191612652565b820191906000526020600020905b81548152906001019060200180831161263557829003601f168201915b5050505050815260200160018201805461266b90615e3e565b80601f016020809104026020016040519081016040528092919081815260200182805461269790615e3e565b80156126e45780601f106126b9576101008083540402835291602001916126e4565b820191906000526020600020905b8154815290600101906020018083116126c757829003601f168201915b505050505081526020016002820180546126fd90615e3e565b80601f016020809104026020016040519081016040528092919081815260200182805461272990615e3e565b80156127765780601f1061274b57610100808354040283529160200191612776565b820191906000526020600020905b81548152906001019060200180831161275957829003601f168201915b5050505050815260200160038201805461278f90615e3e565b80601f01602080910402602001604051908101604052809291908181526020018280546127bb90615e3e565b80156128085780601f106127dd57610100808354040283529160200191612808565b820191906000526020600020905b8154815290600101906020018083116127eb57829003601f168201915b50505091909252505050815260098201546001600160a01b03908116602080840191909152600a840154918216604080850191909152600160a01b90920460ff1615156060808501919091528251600b860180546080948102830185019095529181018481529483019490939192849284918401828280156128b357602002820191906000526020600020905b81546001600160a01b03168152600190910190602001808311612895575b505050505081526020016001820180548060200260200160405190810160405280929190818152602001828054801561290b57602002820191906000526020600020905b8154815260200190600101908083116128f7575b505050505081526020016002820180548060200260200160405190810160405280929190818152602001828054801561296357602002820191906000526020600020905b81548152602001906001019080831161294f575b5050505050815250508152602001600e820160405180608001604052908160008201805461299090615e3e565b80601f01602080910402602001604051908101604052809291908181526020018280546129bc90615e3e565b8015612a095780601f106129de57610100808354040283529160200191612a09565b820191906000526020600020905b8154815290600101906020018083116129ec57829003601f168201915b50505050508152602001600182018054612a2290615e3e565b80601f0160208091040260200160405190810160405280929190818152602001828054612a4e90615e3e565b8015612a9b5780601f10612a7057610100808354040283529160200191612a9b565b820191906000526020600020905b815481529060010190602001808311612a7e57829003601f168201915b50505050508152602001600282018054612ab490615e3e565b80601f0160208091040260200160405190810160405280929190818152602001828054612ae090615e3e565b8015612b2d5780601f10612b0257610100808354040283529160200191612b2d565b820191906000526020600020905b815481529060010190602001808311612b1057829003601f168201915b50505050508152602001600382018054612b4690615e3e565b80601f0160208091040260200160405190810160405280929190818152602001828054612b7290615e3e565b8015612bbf5780601f10612b9457610100808354040283529160200191612bbf565b820191906000526020600020905b815481529060010190602001808311612ba257829003601f168201915b5050505050815250508152602001601282016040518060e0016040529081600082018054612bec90615e3e565b80601f0160208091040260200160405190810160405280929190818152602001828054612c1890615e3e565b8015612c655780601f10612c3a57610100808354040283529160200191612c65565b820191906000526020600020905b815481529060010190602001808311612c4857829003601f168201915b5050505050815260200160018201805480602002602001604051908101604052809291908181526020016000905b82821015612d3f578382906000526020600020018054612cb290615e3e565b80601f0160208091040260200160405190810160405280929190818152602001828054612cde90615e3e565b8015612d2b5780601f10612d0057610100808354040283529160200191612d2b565b820191906000526020600020905b815481529060010190602001808311612d0e57829003601f168201915b505050505081526020019060010190612c93565b505050508152602001600282018054612d5790615e3e565b80601f0160208091040260200160405190810160405280929190818152602001828054612d8390615e3e565b8015612dd05780601f10612da557610100808354040283529160200191612dd0565b820191906000526020600020905b815481529060010190602001808311612db357829003601f168201915b50505050508152602001600382018054612de990615e3e565b80601f0160208091040260200160405190810160405280929190818152602001828054612e1590615e3e565b8015612e625780601f10612e3757610100808354040283529160200191612e62565b820191906000526020600020905b815481529060010190602001808311612e4557829003601f168201915b50505050508152602001600482018054612e7b90615e3e565b80601f0160208091040260200160405190810160405280929190818152602001828054612ea790615e3e565b8015612ef45780601f10612ec957610100808354040283529160200191612ef4565b820191906000526020600020905b815481529060010190602001808311612ed757829003601f168201915b50505050508152602001600582018054612f0d90615e3e565b80601f0160208091040260200160405190810160405280929190818152602001828054612f3990615e3e565b8015612f865780601f10612f5b57610100808354040283529160200191612f86565b820191906000526020600020905b815481529060010190602001808311612f6957829003601f168201915b50505091835250506006919091015460ff1615156020909101529052508451859087908110612fc557634e487b7160e01b600052603260045260246000fd5b6020908102919091010152612fdb600186615db0565b945050505b80612fea81615e79565b915050612409565b6000818152600260205260408120546001600160a01b0316806103dc5760405162461bcd60e51b815260040161049d9061592b565b60006001600160a01b03821661304f5760405162461bcd60e51b815260040161049d906158e1565b506001600160a01b031660009081526003602052604090205490565b6002600654141561308e5760405162461bcd60e51b815260040161049d90615c59565b600260065580158015906130a457506007548111155b6130c05760405162461bcd60e51b815260040161049d90615a8d565b600081815260096020526040902060038101543410156130f25760405162461bcd60e51b815260040161049d90615823565b600a810154600160a01b900460ff1661311d5760405162461bcd60e51b815260040161049d906156c4565b600a8101546001600160a01b031633141561314a5760405162461bcd60e51b815260040161049d90615aeb565b600a81018054600b83018054600181810183556000928352602080842090920180546001600160a01b0319166001600160a01b039586161790556003860154600c8701805480840182559085528385200155600d86018054918201815583529120429101556009830154915481169116141561323857600a8101546040516001600160a01b03909116903480156108fc02916000818181858888f193505050501580156131fb573d6000803e3d6000fd5b507f65c6d8fba61178d7d13f40f93101dc43462b1c7b157b0425857039999938e5f73460405161322b9190615cc6565b60405180910390a1613369565b6000613250606461324a34605e614368565b90614374565b600a8301546040519192506001600160a01b03169082156108fc029083906000818181858888f1935050505015801561328d573d6000803e3d6000fd5b5060006132a0606461324a346005614368565b60098401546040519192506001600160a01b03169082156108fc029083906000818181858888f193505050501580156132dd573d6000803e3d6000fd5b5060006132f0606461324a346001614368565b6008546040519192506001600160a01b03169082156108fc029083906000818181858888f1935050505015801561332b573d6000803e3d6000fd5b507f5c1cc83fbc8e7a522bf0644cacfec8391f6ab9a547c34594a325a98733254815838360405161335d929190615d6d565b60405180910390a15050505b600a810154613382906001600160a01b0316338461422f565b600a810180546001600160a01b0319163317905560038101546133ad9060649061324a906078614368565b600382015560008281526009602052604090208154815560018083018054849392830191906133db90615e3e565b6133e6929190614905565b5060028201816002019080546133fb90615e3e565b613406929190614905565b5060038201548160030155600482015481600401556005820181600501600082018160000190805461343790615e3e565b613442929190614905565b50600182018160010190805461345790615e3e565b613462929190614905565b50600282018160020190805461347790615e3e565b613482929190614905565b50600382018160030190805461349790615e3e565b6134a2929190614905565b50505060098281015490820180546001600160a01b03199081166001600160a01b0393841617909155600a808501805491850180549093169190931617808255915460ff600160a01b918290041615150260ff60a01b19909216919091179055600b8083018054909183019061351b9082908490614980565b50600182810180546135309284019190614980565b50600282810180546135459284019190614980565b505050600e820181600e01600082018160000190805461356490615e3e565b61356f929190614905565b50600182018160010190805461358490615e3e565b61358f929190614905565b5060028201816002019080546135a490615e3e565b6135af929190614905565b5060038201816003019080546135c490615e3e565b6135cf929190614905565b505050601282018160120160008201816000019080546135ee90615e3e565b6135f9929190614905565b506001828101805461360e92840191906149bf565b50600282018160020190805461362390615e3e565b61362e929190614905565b50600382018160030190805461364390615e3e565b61364e929190614905565b50600482018160040190805461366390615e3e565b61366e929190614905565b50600582018160050190805461368390615e3e565b61368e929190614905565b506006918201549101805460ff191660ff928316151517905560075460038501546009860154600a8701546040517f30c844a06fa0a42a14be9be128319db44e764ee66debb78baacff0f327ad926e975061371096509394600189019460028a0194936001600160a01b039081169390811692600160a01b9091041690615d0f565b60405180910390a150506001600655565b60008211801561373357506007548211155b61374f5760405162461bcd60e51b815260040161049d90615a8d565b6000828152600960205260409020600a8101546001600160a01b031633146137895760405162461bcd60e51b815260040161049d90615679565b6003810182905560008381526009602052604090208154815560018083018054849392830191906137b990615e3e565b6137c4929190614905565b5060028201816002019080546137d990615e3e565b6137e4929190614905565b5060038201548160030155600482015481600401556005820181600501600082018160000190805461381590615e3e565b613820929190614905565b50600182018160010190805461383590615e3e565b613840929190614905565b50600282018160020190805461385590615e3e565b613860929190614905565b50600382018160030190805461387590615e3e565b613880929190614905565b50505060098281015490820180546001600160a01b03199081166001600160a01b0393841617909155600a808501805491850180549093169190931617808255915460ff600160a01b918290041615150260ff60a01b19909216919091179055600b808301805490918301906138f99082908490614980565b506001828101805461390e9284019190614980565b50600282810180546139239284019190614980565b505050600e820181600e01600082018160000190805461394290615e3e565b61394d929190614905565b50600182018160010190805461396290615e3e565b61396d929190614905565b50600282018160020190805461398290615e3e565b61398d929190614905565b5060038201816003019080546139a290615e3e565b6139ad929190614905565b505050601282018160120160008201816000019080546139cc90615e3e565b6139d7929190614905565b50600182810180546139ec92840191906149bf565b506002820181600201908054613a0190615e3e565b613a0c929190614905565b506003820181600301908054613a2190615e3e565b613a2c929190614905565b506004820181600401908054613a4190615e3e565b613a4c929190614905565b506005820181600501908054613a6190615e3e565b613a6c929190614905565b506006918201549101805460ff191660ff928316151517905560075460038501546009860154600a870154604051600080516020615f018339815191529750613adc96509394600189019460028a0194936001600160a01b039081169390811692600160a01b9091041690615d0f565b60405180910390a1505050565b6060600180546103f390615e3e565b613b00614138565b6001600160a01b0316826001600160a01b03161415613b315760405162461bcd60e51b815260040161049d90615775565b8060056000613b3e614138565b6001600160a01b03908116825260208083019390935260409182016000908120918716808252919093529120805460ff191692151592909217909155613b82614138565b6001600160a01b03167f17307eab39ab6107e8899845ad3d59bd9653f200f220920489ca2b5937696c3183604051613bba91906155a8565b60405180910390a35050565b613bd7613bd1614138565b836141aa565b613bf35760405162461bcd60e51b815260040161049d90615bb8565b613bff84848484614380565b50505050565b6060613c108261411b565b613c2c5760405162461bcd60e51b815260040161049d90615a3e565b6000613c366143b3565b90506000815111613c565760405180602001604052806000815250613c81565b80613c60846143c5565b604051602001613c719291906153d7565b6040516020818303038152906040525b9392505050565b6001600160a01b03918216600090815260056020908152604080832093909416825291909152205460ff1690565b600081118015613cc857506007548111155b613ce45760405162461bcd60e51b815260040161049d90615a8d565b6000818152600960208190526040909120908101546001600160a01b03163314613d205760405162461bcd60e51b815260040161049d90615c09565b600a81015460098201546001600160a01b03908116911614613d545760405162461bcd60e51b815260040161049d90615b6d565b600a810154600160a01b900460ff16151560011415613d8157600a8101805460ff60a01b19169055613daa565b600a810154600160a01b900460ff16613daa57600a8101805460ff60a01b1916600160a01b1790555b6000828152600960205260409020815481556001808301805484939283019190613dd390615e3e565b613dde929190614905565b506002820181600201908054613df390615e3e565b613dfe929190614905565b50600382015481600301556004820154816004015560058201816005016000820181600001908054613e2f90615e3e565b613e3a929190614905565b506001820181600101908054613e4f90615e3e565b613e5a929190614905565b506002820181600201908054613e6f90615e3e565b613e7a929190614905565b506003820181600301908054613e8f90615e3e565b613e9a929190614905565b50505060098281015490820180546001600160a01b03199081166001600160a01b0393841617909155600a808501805491850180549093169190931617808255915460ff600160a01b918290041615150260ff60a01b19909216919091179055600b80830180549091830190613f139082908490614980565b5060018281018054613f289284019190614980565b5060028281018054613f3d9284019190614980565b505050600e820181600e016000820181600001908054613f5c90615e3e565b613f67929190614905565b506001820181600101908054613f7c90615e3e565b613f87929190614905565b506002820181600201908054613f9c90615e3e565b613fa7929190614905565b506003820181600301908054613fbc90615e3e565b613fc7929190614905565b50505060128201816012016000820181600001908054613fe690615e3e565b613ff1929190614905565b506001828101805461400692840191906149bf565b50600282018160020190805461401b90615e3e565b614026929190614905565b50600382018160030190805461403b90615e3e565b614046929190614905565b50600482018160040190805461405b90615e3e565b614066929190614905565b50600582018160050190805461407b90615e3e565b614086929190614905565b506006918201549101805460ff191660ff928316151517905560075460038501546009860154600a870154604051600080516020615f0183398151915297506140f696509394600189019460028a0194936001600160a01b039081169390811692600160a01b9091041690615d0f565b60405180910390a15050565b6001600160e01b031981166301ffc9a760e01b14919050565b6000908152600260205260409020546001600160a01b0316151590565b3390565b600081815260046020526040902080546001600160a01b0319166001600160a01b038416908117909155819061417182612ff2565b6001600160a01b03167f8c5be1e5ebec7d5bd14f71427d1e84f3dd0314c0f7b2291e5b200ac8c7c3b92560405160405180910390a45050565b60006141b58261411b565b6141d15760405162461bcd60e51b815260040161049d906157d7565b60006141dc83612ff2565b9050806001600160a01b0316846001600160a01b031614806142175750836001600160a01b031661420c84610476565b6001600160a01b0316145b8061422757506142278185613c88565b949350505050565b826001600160a01b031661424282612ff2565b6001600160a01b0316146142685760405162461bcd60e51b815260040161049d906159f5565b6001600160a01b03821661428e5760405162461bcd60e51b815260040161049d90615731565b614299838383610555565b6142a460008261413c565b6001600160a01b03831660009081526003602052604081208054600192906142cd908490615dfb565b90915550506001600160a01b03821660009081526003602052604081208054600192906142fb908490615db0565b909155505060008181526002602052604080822080546001600160a01b0319166001600160a01b038681169182179092559151849391871691600080516020615f2183398151915291a4505050565b6143648282604051806020016040528060008152506144df565b5050565b6000613c818284615ddc565b6000613c818284615dc8565b61438b84848461422f565b61439784848484614512565b613bff5760405162461bcd60e51b815260040161049d90615627565b60408051602081019091526000815290565b6060816143ea57506040805180820190915260018152600360fc1b60208201526103df565b8160005b811561441457806143fe81615e79565b915061440d9050600a83615dc8565b91506143ee565b6000816001600160401b0381111561443c57634e487b7160e01b600052604160045260246000fd5b6040519080825280601f01601f191660200182016040528015614466576020820181803683370190505b5090505b84156142275761447b600183615dfb565b9150614488600a86615e94565b614493906030615db0565b60f81b8183815181106144b657634e487b7160e01b600052603260045260246000fd5b60200101906001600160f81b031916908160001a9053506144d8600a86615dc8565b945061446a565b6144e9838361462d565b6144f66000848484614512565b6105555760405162461bcd60e51b815260040161049d90615627565b6000614526846001600160a01b03166146fa565b1561462257836001600160a01b031663150b7a02614542614138565b8786866040518563ffffffff1660e01b8152600401614564949392919061541a565b602060405180830381600087803b15801561457e57600080fd5b505af19250505080156145ae575060408051601f3d908101601f191682019092526145ab91810190614f3e565b60015b614608573d8080156145dc576040519150601f19603f3d011682016040523d82523d6000602084013e6145e1565b606091505b5080516146005760405162461bcd60e51b815260040161049d90615627565b805181602001fd5b6001600160e01b031916630a85bd0160e11b149050614227565b506001949350505050565b6001600160a01b0382166146535760405162461bcd60e51b815260040161049d90615974565b61465c8161411b565b156146795760405162461bcd60e51b815260040161049d906156fb565b61468560008383610555565b6001600160a01b03821660009081526003602052604081208054600192906146ae908490615db0565b909155505060008181526002602052604080822080546001600160a01b0319166001600160a01b0386169081179091559051839290600080516020615f21833981519152908290a45050565b3b151590565b6040518061018001604052806000815260200160608152602001606081526020016000815260200160008152602001614737614a15565b8152600060208201819052604082018190526060820152608001614759614778565b8152602001614766614a15565b8152602001614773614a3d565b905290565b60405180606001604052806060815260200160608152602001606081525090565b8280546147a590615e3e565b90600052602060002090601f0160209004810192826147c7576000855561480d565b82601f106147e057805160ff191683800117855561480d565b8280016001018555821561480d579182015b8281111561480d5782518255916020019190600101906147f2565b50614819929150614a7c565b5090565b82805482825590600052602060002090810192821561480d579160200282015b8281111561480d57825182546001600160a01b0319166001600160a01b0390911617825560209092019160019091019061483d565b82805482825590600052602060002090810192821561480d579160200282018281111561480d5782518255916020019190600101906147f2565b8280548282559060005260206000209081019282156148f9579160200282015b828111156148f957825180516148e9918491602090910190614799565b50916020019190600101906148cc565b50614819929150614a91565b82805461491190615e3e565b90600052602060002090601f016020900481019282614933576000855561480d565b82601f10614944578054855561480d565b8280016001018555821561480d57600052602060002091601f016020900482015b8281111561480d578254825591600101919060010190614965565b82805482825590600052602060002090810192821561480d5760005260206000209182018281111561480d578254825591600101919060010190614965565b8280548282559060005260206000209081019282156148f95760005260206000209182015b828111156148f95782829080546149fa90615e3e565b614a05929190614905565b50916001019190600101906149e4565b6040518060800160405280606081526020016060815260200160608152602001606081525090565b6040518060e001604052806060815260200160608152602001606081526020016060815260200160608152602001606081526020016000151581525090565b5b808211156148195760008155600101614a7d565b80821115614819576000614aa58282614aae565b50600101614a91565b508054614aba90615e3e565b6000825580601f10614acc5750614aea565b601f016020900490600052602060002090810190614aea9190614a7c565b50565b60006001600160401b03831115614b0657614b06615ed4565b614b19601f8401601f1916602001615d7b565b9050828152838383011115614b2d57600080fd5b828260208301376000602084830101529392505050565b80356001600160a01b03811681146103df57600080fd5b600082601f830112614b6b578081fd5b813560206001600160401b03821115614b8657614b86615ed4565b614b938182840201615d7b565b82815281810190858301855b85811015614bc857614bb6898684358b0101614be5565b84529284019290840190600101614b9f565b5090979650505050505050565b803580151581146103df57600080fd5b600082601f830112614bf5578081fd5b613c8183833560208501614aed565b600060e08284031215614c15578081fd5b614c1f60e0615d7b565b905081356001600160401b0380821115614c3857600080fd5b614c4485838601614be5565b83526020840135915080821115614c5a57600080fd5b614c6685838601614b5b565b60208401526040840135915080821115614c7f57600080fd5b614c8b85838601614be5565b60408401526060840135915080821115614ca457600080fd5b614cb085838601614be5565b60608401526080840135915080821115614cc957600080fd5b614cd585838601614be5565b608084015260a0840135915080821115614cee57600080fd5b50614cfb84828501614be5565b60a083015250614d0d60c08301614bd5565b60c082015292915050565b600060808284031215614d29578081fd5b614d336080615d7b565b905081356001600160401b0380821115614d4c57600080fd5b614d5885838601614be5565b83526020840135915080821115614d6e57600080fd5b614d7a85838601614be5565b60208401526040840135915080821115614d9357600080fd5b614d9f85838601614be5565b60408401526060840135915080821115614db857600080fd5b50614dc584828501614be5565b60608301525092915050565b600060208284031215614de2578081fd5b613c8182614b44565b60008060408385031215614dfd578081fd5b614e0683614b44565b9150614e1460208401614b44565b90509250929050565b600080600060608486031215614e31578081fd5b614e3a84614b44565b9250614e4860208501614b44565b9150604084013590509250925092565b60008060008060808587031215614e6d578081fd5b614e7685614b44565b9350614e8460208601614b44565b92506040850135915060608501356001600160401b03811115614ea5578182fd5b8501601f81018713614eb5578182fd5b614ec487823560208401614aed565b91505092959194509250565b60008060408385031215614ee2578182fd5b614eeb83614b44565b9150614e1460208401614bd5565b60008060408385031215614f0b578182fd5b614f1483614b44565b946020939093013593505050565b600060208284031215614f33578081fd5b8135613c8181615eea565b600060208284031215614f4f578081fd5b8151613c8181615eea565b6000806000806000806000806000806101408b8d031215614f79578788fd5b8a356001600160401b0380821115614f8f57898afd5b614f9b8e838f01614be5565b9b5060208d0135915080821115614fb057898afd5b614fbc8e838f01614be5565b9a5060408d0135995060608d0135915080821115614fd8578788fd5b614fe48e838f01614be5565b985060808d0135915080821115614ff9578788fd5b6150058e838f01614be5565b975060a08d013591508082111561501a578687fd5b6150268e838f01614be5565b965060c08d013591508082111561503b578586fd5b6150478e838f01614be5565b955061505560e08e01614bd5565b94506101008d013591508082111561506b578384fd5b6150778e838f01614d18565b93506101208d013591508082111561508d578283fd5b5061509a8d828e01614c04565b9150509295989b9194979a5092959850565b6000602082840312156150bd578081fd5b5035919050565b600080604083850312156150d6578182fd5b50508035926020909101359150565b6001600160a01b03169052565b6000815180845260208085019450808401835b8381101561512157815187529582019590820190600101615105565b509495945050505050565b15159052565b6000815180845261514a816020860160208601615e12565b601f01601f19169290920160200192915050565b80546000906002810460018083168061517857607f831692505b602080841082141561519857634e487b7160e01b86526022600452602486fd5b6151a28489615cc6565b8280156151b657600181146151c7576151f2565b60ff198716825282820197506151f2565b6151d089615da4565b60005b878110156151ec578154848201529086019084016151d3565b83019850505b5050505050505092915050565b6000815160e0845261521460e0850182615132565b9050602080840151858303828701528281518085528385019150838482028601018484019350865b8281101561526a57601f19878303018452615258828651615132565b9486019493860193915060010161523c565b506040880151955088810360408a01526152848187615132565b95505050505050606083015184820360608601526152a28282615132565b915050608083015184820360808601526152bc8282615132565b91505060a083015184820360a08601526152d68282615132565b91505060c08301516152eb60c086018261512c565b509392505050565b60008151608084526153086080850182615132565b9050602083015184820360208601526153218282615132565b9150506040830151848203604086015261533b8282615132565b915050606083015184820360608601526153558282615132565b95945050505050565b805160608084528151908401819052600091602091908201906080860190845b818110156153a35783516001600160a01b03168352928401929184019160010161537e565b5050828501519150858103838701526153bc81836150f2565b925050506040830151848203604086015261535582826150f2565b600083516153e9818460208801615e12565b8351908301906153fd818360208801615e12565b01949350505050565b6001600160a01b0391909116815260200190565b6001600160a01b038581168252841660208201526040810183905260806060820181905260009061544d90830184615132565b9695505050505050565b60208082528251828201819052600091906040908185019080840286018301878501865b8381101561559a57603f1989840301855281516101808151855288820151818a8701526154aa82870182615132565b91505087820151858203898701526154c28282615132565b9150506060808301518187015250608080830151818701525060a080830151868303828801526154f283826152f3565b9250505060c080830151615508828801826150e5565b505060e08083015161551c828801826150e5565b5050610100808301516155318288018261512c565b5050610120808301518683038288015261554b838261535e565b92505050610140808301518683038288015261556783826152f3565b92505050610160808301519250858203818701525061558681836151ff565b96890196945050509086019060010161547b565b509098975050505050505050565b901515815260200190565b600060208252613c816020830184615132565b60208082526011908201527009cde40e6dedccee640e8de40cccae8c6d607b1b604082015260600190565b6020808252601c908201527b10dbdd995c881a5b5859d9481b5d5cdd081899481c1c9bdd9a59195960221b604082015260600190565b60208082526032908201527f4552433732313a207472616e7366657220746f206e6f6e20455243373231526560408201527131b2b4bb32b91034b6b83632b6b2b73a32b960711b606082015260800190565b6020808252602b908201527f4f6e6c79207468652063757272656e74206f776e65722063616e20757064617460408201526a652074686520707269636560a81b606082015260800190565b6020808252601e908201527f536f6e67206973206e6f7420617661696c61626c6520666f722073616c650000604082015260600190565b6020808252601c908201527b115490cdcc8c4e881d1bdad95b88185b1c9958591e481b5a5b9d195960221b604082015260600190565b60208082526024908201527f4552433732313a207472616e7366657220746f20746865207a65726f206164646040820152637265737360e01b606082015260800190565b60208082526019908201527822a9219b99189d1030b8383937bb32903a379031b0b63632b960391b604082015260600190565b60208082526015908201527414dbdb99c81b5d5cdd081899481c1c9bdd9a591959605a1b604082015260600190565b6020808252602c908201527f4552433732313a206f70657261746f7220717565727920666f72206e6f6e657860408201526b34b9ba32b73a103a37b5b2b760a11b606082015260800190565b602080825260199082015278139bdd08195b9bdd59da081b585d1a58c81c1c9bdd9a591959603a1b604082015260600190565b602080825260199082015278536f6e67206e616d652063616e6e6f7420626520656d70747960381b604082015260600190565b60208082526038908201527f4552433732313a20617070726f76652063616c6c6572206973206e6f74206f776040820152771b995c881b9bdc88185c1c1c9bdd995908199bdc88185b1b60421b606082015260800190565b6020808252602a908201527f4552433732313a2062616c616e636520717565727920666f7220746865207a65604082015269726f206164647265737360b01b606082015260800190565b60208082526029908201527f4552433732313a206f776e657220717565727920666f72206e6f6e657869737460408201526832b73a103a37b5b2b760b91b606082015260800190565b6020808252818101527f4552433732313a206d696e7420746f20746865207a65726f2061646472657373604082015260600190565b6020808252602c908201527f4552433732313a20617070726f76656420717565727920666f72206e6f6e657860408201526b34b9ba32b73a103a37b5b2b760a11b606082015260800190565b60208082526029908201527f4552433732313a207472616e73666572206f6620746f6b656e2074686174206960408201526839903737ba1037bbb760b91b606082015260800190565b6020808252602f908201527f4552433732314d657461646174613a2055524920717565727920666f72206e6f60408201526e3732bc34b9ba32b73a103a37b5b2b760891b606082015260800190565b6020808252600f908201526e125b9d985b1a59081cdbdb99c81a59608a1b604082015260600190565b6020808252601b908201527a417274697374206e616d652063616e6e6f7420626520656d70747960281b604082015260600190565b60208082526021908201527f596f752063616e6e6f7420707572636861736520796f7572206f776e20736f6e6040820152606760f81b606082015260800190565b60208082526021908201527f4552433732313a20617070726f76616c20746f2063757272656e74206f776e656040820152603960f91b606082015260800190565b6020808252602b908201527f417274697374206d757374206265207468652063757272656e74206f776e657260408201526a081bd9881d1a194813919560aa1b606082015260800190565b60208082526031908201527f4552433732313a207472616e736665722063616c6c6572206973206e6f74206f6040820152701ddb995c881b9bdc88185c1c1c9bdd9959607a1b606082015260800190565b60208082526030908201527f4f6e6c7920746865206172746973742063616e20746f67676c6520746865206f60408201526f6e2073616c652061747472696275746560801b606082015260800190565b6020808252601f908201527f5265656e7472616e637947756172643a207265656e7472616e742063616c6c00604082015260600190565b6020808252601c908201527b5072696365206d757374206265206174206c6561737420312077656960201b604082015260600190565b90815260200190565b600086825260a06020830152615ce860a0830187615132565b8281036040840152615cfa8187615132565b60608401959095525050608001529392505050565b600088825260e06020830152615d2860e083018961515e565b8281036040840152615d3a818961515e565b606084019790975250506001600160a01b0393841660808201529190921660a082015290151560c0909101529392505050565b918252602082015260400190565b6040518181016001600160401b0381118282101715615d9c57615d9c615ed4565b604052919050565b60009081526020902090565b60008219821115615dc357615dc3615ea8565b500190565b600082615dd757615dd7615ebe565b500490565b6000816000190483118215151615615df657615df6615ea8565b500290565b600082821015615e0d57615e0d615ea8565b500390565b60005b83811015615e2d578181015183820152602001615e15565b83811115613bff5750506000910152565b600281046001821680615e5257607f821691505b60208210811415615e7357634e487b7160e01b600052602260045260246000fd5b50919050565b6000600019821415615e8d57615e8d615ea8565b5060010190565b600082615ea357615ea3615ebe565b500690565b634e487b7160e01b600052601160045260246000fd5b634e487b7160e01b600052601260045260246000fd5b634e487b7160e01b600052604160045260246000fd5b6001600160e01b031981168114614aea57600080fdfe94292df13d29700bc2d3eb2a0ea031a5380ad4f2df2bd33a92162c187d5f53acddf252ad1be2c89b69c2b068fc378daa952ba7f163c4a11628f55a4df523b3efa264697066735822122074077faf243e4318cceb4ea6739d2522f10ea1a1a74fcd90f4aebeae6f50358d64736f6c63430008000033",
  "immutableReferences": {},
  "source": "// contracts/Musixverse.sol\n// SPDX-License-Identifier: MIT\npragma solidity ^0.8.0;\n\nimport \"@openzeppelin/contracts/token/ERC721/ERC721.sol\";\nimport \"@openzeppelin/contracts/security/ReentrancyGuard.sol\";\nimport \"@openzeppelin/contracts/utils/math/SafeMath.sol\";\n\ncontract Musixverse is ERC721, ReentrancyGuard {\n    using SafeMath for uint256;\n\n    uint256 public songsCount = 0;\n    address MusixverseMain = 0x159507b2b3829791fAB794581D2aC074F3596013;\n\n    constructor() ERC721(\"Musixverse\", \"MXV\") {}\n\n    struct Link {\n        string spotify;\n        string appleMusic;\n        string amazonMusic;\n        string youtubeMusic;\n    }\n\n    struct Characteristic {\n        string genre;\n        string[] instruments;\n        string typeOfLyrics;\n        string songType;\n        string frequency;\n        string instrumentType;\n        bool sampleBased;\n    }\n\n    struct Sales {\n        address[] previousOwners;\n        uint256[] previousPrices;\n        uint256[] previousSaleTimes;\n    }\n\n    struct Hashes {\n        string imgHash;\n        string songHash;\n        string descHash;\n        string lyricsHash;\n    }\n\n    struct Song {\n        uint256 id;\n        string songName;\n        string artistName;\n        uint256 price;\n        uint256 createTime;\n        Hashes hashes;\n        address payable artistAddress;\n        address payable currentOwnerAddress;\n        bool onSale;\n        Sales sales;\n        Link links;\n        Characteristic characteristics;\n    }\n\n    mapping(uint256 => Song) private songs;\n\n    event SongCreated(\n        uint256 id,\n        string songName,\n        string artistName,\n        uint256 price,\n        uint256 createTime\n    );\n\n    event SongPurchased(\n        uint256 id,\n        string songName,\n        string artistName,\n        uint256 price,\n        address payable artistAddress,\n        address payable currentOwnerAddress,\n        bool onSale\n    );\n\n    event SongUpdated(\n        uint256 id,\n        string songName,\n        string artistName,\n        uint256 price,\n        address payable artistAddress,\n        address payable currentOwnerAddress,\n        bool onSale\n    );\n\n    event FundsTransferred(\n        uint256 fundsTransferredToSeller,\n        uint256 fundsTransferredToArtist\n    );\n\n    event FundsTransferredToArtist(uint256 fundsTransferredToArtist);\n\n    function createSong(\n        string memory _songName,\n        string memory _artistName,\n        uint256 _price,\n        string memory _imgHash,\n        string memory _songHash,\n        string memory _descHash,\n        string memory _lyricsHash,\n        bool _onSale,\n        Link memory _links,\n        Characteristic memory _characteristics\n    ) public nonReentrant {\n        // Require a name\n        require(bytes(_songName).length > 0, \"Song name cannot be empty\");\n        // Require an artist name\n        require(bytes(_artistName).length > 0, \"Artist name cannot be empty\");\n        // Require price > 0\n        require(_price > 0, \"Price must be at least 1 wei\");\n        require(bytes(_imgHash).length > 0, \"Cover image must be provided\");\n        require(bytes(_songHash).length > 0, \"Song must be provided\");\n\n        songsCount += 1;\n        uint256 _createTime = block.timestamp;\n        Sales memory _sales;\n\n        songs[songsCount] = Song(\n            songsCount,\n            _songName,\n            _artistName,\n            _price,\n            _createTime,\n            Hashes(_imgHash, _songHash, _descHash, _lyricsHash),\n            payable(msg.sender),\n            payable(msg.sender),\n            _onSale,\n            _sales,\n            _links,\n            _characteristics\n        );\n\n        // Call mint function\n        _safeMint(msg.sender, songsCount);\n        // Trigger an event\n        emit SongCreated(\n            songsCount,\n            _songName,\n            _artistName,\n            _price,\n            _createTime\n        );\n    }\n\n    function purchaseSong(uint256 _id) public payable nonReentrant {\n        // Make sure the id is valid\n        require(_id > 0 && _id <= songsCount, \"Invalid song id\");\n        // Fetch the song\n        Song storage _song = songs[_id];\n        // Require that there is enough matic provided for the transaction\n        require(msg.value >= _song.price, \"Not enough matic provided\");\n        // Require that the song is available for sale\n        require(_song.onSale, \"Song is not available for sale\");\n        // Require that buyer is not the seller\n        require(\n            _song.currentOwnerAddress != msg.sender,\n            \"You cannot purchase your own song\"\n        );\n        // Add the owner to previousOwners\n        _song.sales.previousOwners.push(_song.currentOwnerAddress);\n        // Add price to previousPrices\n        _song.sales.previousPrices.push(_song.price);\n        // Add time to previousSaleTimes\n        _song.sales.previousSaleTimes.push(block.timestamp);\n        // Transfer matic\n        if (_song.currentOwnerAddress == _song.artistAddress) {\n            // Transfer all matic to artist whenever the first transaction for the NFT happens. This is because the artist is the owner after creating the NFT.\n            payable(_song.currentOwnerAddress).transfer(msg.value);\n            emit FundsTransferredToArtist(msg.value);\n        } else {\n            // Pay the seller by sending 94% matic\n            uint256 _value = ((msg.value).mul(94)).div(100);\n            payable(_song.currentOwnerAddress).transfer(_value);\n            // Pay the artist 5% of the transaction amount as royalty\n            uint256 _royalty = ((msg.value).mul(5)).div(100);\n            payable(_song.artistAddress).transfer(_royalty);\n            // Pay the platform fee by sending the remaining 1% matic\n            uint256 _platformFee = ((msg.value).mul(1)).div(100);\n            payable(MusixverseMain).transfer(_platformFee);\n            // Trigger funds transferred event\n            emit FundsTransferred(_value, _royalty);\n        }\n        // Transfer ownership to buyer\n        _transfer(_song.currentOwnerAddress, msg.sender, _id);\n        _song.currentOwnerAddress = payable(msg.sender);\n        // Increase price of NFT by 20%\n        _song.price = ((_song.price).mul(120)).div(100);\n        // Update the song\n        songs[_id] = _song;\n        // Trigger an event\n        emit SongPurchased(\n            songsCount,\n            _song.songName,\n            _song.artistName,\n            _song.price,\n            _song.artistAddress,\n            _song.currentOwnerAddress,\n            _song.onSale\n        );\n    }\n\n    function toggleOnSale(uint256 _id) public {\n        // Make sure the id is valid\n        require(_id > 0 && _id <= songsCount, \"Invalid song id\");\n        // Fetch the song\n        Song storage _song = songs[_id];\n        // Require that the artist is calling the function\n        require(\n            _song.artistAddress == msg.sender,\n            \"Only the artist can toggle the on sale attribute\"\n        );\n        // Require that the artist is also the current owner\n        require(\n            _song.artistAddress == _song.currentOwnerAddress,\n            \"Artist must be the current owner of the NFT\"\n        );\n        // Toggle onSale attribute\n        if (_song.onSale == true) {\n            _song.onSale = false;\n        } else if (_song.onSale == false) {\n            _song.onSale = true;\n        }\n        // Update the song\n        songs[_id] = _song;\n        // Trigger an event\n        emit SongUpdated(\n            songsCount,\n            _song.songName,\n            _song.artistName,\n            _song.price,\n            _song.artistAddress,\n            _song.currentOwnerAddress,\n            _song.onSale\n        );\n    }\n\n    function updatePrice(uint256 _id, uint256 _newPrice) public {\n        // Make sure the id is valid\n        require(_id > 0 && _id <= songsCount, \"Invalid song id\");\n        // Fetch the song\n        Song storage _song = songs[_id];\n        // Require that the current owner is calling the function\n        require(\n            _song.currentOwnerAddress == msg.sender,\n            \"Only the current owner can update the price\"\n        );\n        // Edit the price\n        _song.price = _newPrice;\n        // Update the song\n        songs[_id] = _song;\n        // Trigger an event\n        emit SongUpdated(\n            songsCount,\n            _song.songName,\n            _song.artistName,\n            _song.price,\n            _song.artistAddress,\n            _song.currentOwnerAddress,\n            _song.onSale\n        );\n    }\n\n    /* Returns all items */\n    function fetchAllNFTs() public view returns (Song[] memory) {\n        require(songsCount > 0, \"No songs to fetch\");\n        Song[] memory items = new Song[](songsCount);\n\n        for (uint256 i = 1; i <= songsCount; i++) {\n            Song storage currentItem = songs[i];\n            items[i - 1] = currentItem;\n        }\n        return items;\n    }\n\n    /* Returns only items that a user owns */\n    function fetchMyNFTs() public view returns (Song[] memory) {\n        uint256 totalItemCount = songsCount;\n        uint256 itemCount = 0;\n        uint256 currentIndex = 0;\n\n        for (uint256 i = 0; i < totalItemCount; i++) {\n            if (songs[i + 1].currentOwnerAddress == msg.sender) {\n                itemCount += 1;\n            }\n        }\n\n        Song[] memory items = new Song[](itemCount);\n        for (uint256 i = 0; i < totalItemCount; i++) {\n            if (songs[i + 1].currentOwnerAddress == msg.sender) {\n                uint256 currentId = i + 1;\n                Song storage currentItem = songs[currentId];\n                items[currentIndex] = currentItem;\n                currentIndex += 1;\n            }\n        }\n        return items;\n    }\n\n    /* Returns only items a user has created */\n    function fetchNFTsCreated() public view returns (Song[] memory) {\n        uint256 totalItemCount = songsCount;\n        uint256 itemCount = 0;\n        uint256 currentIndex = 0;\n\n        for (uint256 i = 0; i < totalItemCount; i++) {\n            if (songs[i + 1].artistAddress == msg.sender) {\n                itemCount += 1;\n            }\n        }\n\n        Song[] memory items = new Song[](itemCount);\n        for (uint256 i = 0; i < totalItemCount; i++) {\n            if (songs[i + 1].artistAddress == msg.sender) {\n                uint256 currentId = i + 1;\n                Song storage currentItem = songs[currentId];\n                items[currentIndex] = currentItem;\n                currentIndex += 1;\n            }\n        }\n        return items;\n    }\n}\n",
  "sourcePath": "/Users/pushpitbhardwaj/Desktop/h4CK3R/blockchain/musixverse/contracts/Musixverse.sol",
  "compiler": {
    "name": "solc",
    "version": "0.8.0+commit.c7dfd78e.Emscripten.clang"
  },
  "schemaVersion": "3.4.3",
  "updatedAt": "2021-11-24T10:36:32.222Z",
  "networkType": "ethereum",
  "devdoc": {
    "kind": "dev",
    "methods": {
      "approve(address,uint256)": {
        "details": "See {IERC721-approve}."
      },
      "balanceOf(address)": {
        "details": "See {IERC721-balanceOf}."
      },
      "getApproved(uint256)": {
        "details": "See {IERC721-getApproved}."
      },
      "isApprovedForAll(address,address)": {
        "details": "See {IERC721-isApprovedForAll}."
      },
      "name()": {
        "details": "See {IERC721Metadata-name}."
      },
      "ownerOf(uint256)": {
        "details": "See {IERC721-ownerOf}."
      },
      "safeTransferFrom(address,address,uint256)": {
        "details": "See {IERC721-safeTransferFrom}."
      },
      "safeTransferFrom(address,address,uint256,bytes)": {
        "details": "See {IERC721-safeTransferFrom}."
      },
      "setApprovalForAll(address,bool)": {
        "details": "See {IERC721-setApprovalForAll}."
      },
      "supportsInterface(bytes4)": {
        "details": "See {IERC165-supportsInterface}."
      },
      "symbol()": {
        "details": "See {IERC721Metadata-symbol}."
      },
      "tokenURI(uint256)": {
        "details": "See {IERC721Metadata-tokenURI}."
      },
      "transferFrom(address,address,uint256)": {
        "details": "See {IERC721-transferFrom}."
      }
    },
    "version": 1
  },
  "userdoc": {
    "kind": "user",
    "methods": {},
    "version": 1
  }
}